{
  "contractName": "messageStore",
  "abi": [
    {
      "inputs": [
        {
          "internalType": "string",
          "name": "message",
          "type": "string"
        }
      ],
      "name": "setMessage",
      "outputs": [],
      "stateMutability": "nonpayable",
      "type": "function"
    },
    {
      "inputs": [],
      "name": "getMessage",
      "outputs": [
        {
          "internalType": "bytes32",
          "name": "",
          "type": "bytes32"
        }
      ],
      "stateMutability": "view",
      "type": "function",
      "constant": true
    }
  ],
  "bytecode": "0x608060405234801561001057600080fd5b506105a4806100206000396000f3fe608060405234801561001057600080fd5b50600436106100365760003560e01c8063368b87721461003b578063ce6d41de14610057575b600080fd5b61005560048036038101906100509190610128565b610075565b005b61005f61008b565b60405161006c919061018e565b60405180910390f35b8181600091826100869291906103f9565b505050565b60008060405160200161009e9190610557565b60405160208183030381529060405280519060200120905090565b600080fd5b600080fd5b600080fd5b600080fd5b600080fd5b60008083601f8401126100e8576100e76100c3565b5b8235905067ffffffffffffffff811115610105576101046100c8565b5b602083019150836001820283011115610121576101206100cd565b5b9250929050565b6000806020838503121561013f5761013e6100b9565b5b600083013567ffffffffffffffff81111561015d5761015c6100be565b5b610169858286016100d2565b92509250509250929050565b6000819050919050565b61018881610175565b82525050565b60006020820190506101a3600083018461017f565b92915050565b600082905092915050565b7f4e487b7100000000000000000000000000000000000000000000000000000000600052604160045260246000fd5b7f4e487b7100000000000000000000000000000000000000000000000000000000600052602260045260246000fd5b6000600282049050600182168061022a57607f821691505b60208210810361023d5761023c6101e3565b5b50919050565b60008190508160005260206000209050919050565b60006020601f8301049050919050565b600082821b905092915050565b6000600883026102a57fffffffffffffffffffffffffffffffffffffffffffffffffffffffffffffffff82610268565b6102af8683610268565b95508019841693508086168417925050509392505050565b6000819050919050565b6000819050919050565b60006102f66102f16102ec846102c7565b6102d1565b6102c7565b9050919050565b6000819050919050565b610310836102db565b61032461031c826102fd565b848454610275565b825550505050565b600090565b61033961032c565b610344818484610307565b505050565b5b818110156103685761035d600082610331565b60018101905061034a565b5050565b601f8211156103ad5761037e81610243565b61038784610258565b81016020851015610396578190505b6103aa6103a285610258565b830182610349565b50505b505050565b600082821c905092915050565b60006103d0600019846008026103b2565b1980831691505092915050565b60006103e983836103bf565b9150826002028217905092915050565b61040383836101a9565b67ffffffffffffffff81111561041c5761041b6101b4565b5b6104268254610212565b61043182828561036c565b6000601f831160018114610460576000841561044e578287013590505b61045885826103dd565b8655506104c0565b601f19841661046e86610243565b60005b8281101561049657848901358255600182019150602085019450602081019050610471565b868310156104b357848901356104af601f8916826103bf565b8355505b6001600288020188555050505b50505050505050565b600081905092915050565b600081546104e181610212565b6104eb81866104c9565b94506001821660008114610506576001811461051b5761054e565b60ff198316865281151582028601935061054e565b61052485610243565b60005b8381101561054657815481890152600182019150602081019050610527565b838801955050505b50505092915050565b600061056382846104d4565b91508190509291505056fea2646970667358221220d280dd3e76f6e024d409f559ad46f5454bf07d68a76b0cfeeb94a0126bb9020164736f6c63430008110033",
  "immutableReferences": {},
  "source": "// SPDX-License-Identifier: UNLICENSED\r\npragma solidity ^0.8.17;\r\n\r\ncontract messageStore {\r\n    string Message;\r\n\r\n    function setMessage (string calldata message) public {\r\n        Message = message;\r\n    }\r\n\r\n    function getMessage () public view returns (bytes32) {\r\n        return keccak256(abi.encodePacked(Message));\r\n    }\r\n}",
  "sourcePath": "C:\\Users\\Kolade\\documents\\Work Space\\MessageStore\\smart_contract\\contracts\\messageStore.sol",
  "compiler": {
    "name": "solc",
    "version": "0.8.17+commit.8df45f5f.Emscripten.clang"
  },
  "schemaVersion": "3.4.10",
  "updatedAt": "2022-11-20T23:01:45.187Z",
  "networkType": "ethereum",
  "devdoc": {
    "kind": "dev",
    "methods": {},
    "version": 1
  },
  "userdoc": {
    "kind": "user",
    "methods": {},
    "version": 1
  }
}